:100000000C9434000C943E000C943E000C943E0082
:100010000C943E000C943E000C943E000C943E0068
:100020000C943E000C943E000C943E000C943E0058
:100030000C943E000C943E000C943E000C943E0048
:100040000C943E000C943E000C943E000C943E0038
:100050000C943E000C943E000C943E000C943E0028
:100060000C943E000C943E0011241FBECFEFD8E04C
:10007000DEBFCDBF0E945A000C947D000C9400009E
:10008000482F592F80E090E007C05898599A599806
:1000900001968031910559F09A01082E02C03695DB
:1000A00027950A94E2F720FFF0CF589AEFCF5A9A9B
:1000B0005A980895509A519A529A10E0C0E0D0E8A8
:1000C00001E006C0D695C795C130D10509F41027C7
:1000D000CE010E9440002FEF84E39CE0215080403D
:1000E0009040E1F700C00000112361F3CC0FDD1F49
:0E00F000C11520E8D20761F7EACFF894FFCFE0
:00000001FF
